S02700007265616420696E70757420616E6420636F6E74726F6C6C206F6E65206C65642E737265637A
S11300000C9434000C943E000C943E000C943E007E
S11300100C943E000C943E000C943E000C943E0064
S11300200C943E000C943E000C943E000C943E0054
S11300300C943E000C943E000C943E000C943E0044
S11300400C943E000C943E000C943E000C943E0034
S11300500C943E000C943E000C943E000C943E0024
S11300600C943E000C943E0011241FBECFEFD8E048
S1130070DEBFCDBF0E9440000C9468000C940000C9
S113008084B1866084B952982A9A4A9B0BC0299AF3
S11300902FEF89E698E1215080409040E1F700C0BD
S11300A0000001C029982A9A2FEF87EA91E621508F
S11300B080409040E1F700C000002A982FEF87EAC3
S11300C091E6215080409040E1F700C00000DCCF71
S10700D0F894FFCFCE
S9030000FC
