:100000000C942A000C9434000C9434000C943400AA
:100010000C9434000C9434000C9434000C94340090
:100020000C9434000C9434000C9434000C94340080
:100030000C9434000C9434000C9434000C94340070
:100040000C9434000C9434000C9434000C94340060
:100050000C94340011241FBECFE5D8E0DEBFCDBF25
:100060000E94BB000C94C6000C94000084BB82E08C
:1000700081BB8FE19EE40197F1F700C0000011BA47
:100080008FE697E10197F1F700C00000089584BB67
:1000900080EA81BB8FE19EE40197F1F700C0000088
:1000A00080E881BB8FE697E10197F1F700C000007F
:1000B000089588E30E94360081E00E9436008EE0B9
:1000C0000E94360080E80E943600089588E40E946D
:1000D000360080E00E9447008AE00E94470085E1E8
:1000E0000E94470081E10E94470082E10E94470090
:1000F00080E00E94470080E00E94470080E00E946C
:10010000470080E80E94360081E00E9447002FEF00
:1001100080E792E0215080409040E1F700C000006D
:1001200080E50E94360080E00E94470080E00E9447
:1001300047008AE00E94470080E00E94470084E078
:100140000E94470080E00E9447008EE00E94470026
:1001500081E10E94470082E80E94360082E00E940E
:1001600047002FEF80E792E0215080409040E1F778
:1001700000C0000008958FEF84BB80EE81BB15BAEC
:1001800012BA0E9459000E946600FFCFF894FFCF78
:00000001FF
