:100000000C942A000C9434000C9434000C943400AA
:100010000C9434000C9434000C9434000C94340090
:100020000C9434000C9434000C9434000C94340080
:100030000C9434000C9434000C9434000C94340070
:100040000C9434000C9434000C9434000C94340060
:100050000C94340011241FBECFE5D8E0DEBFCDBF25
:100060000E9442000C945A000C9400008CB95E99D6
:1000700008C08FE19EE40197F1F700C000005E9B8D
:10008000F8CF089582E081BB12BA1BB888E18AB923
:1000900086E080BD10BC83E389B988E40E94360005
:1000A00084E20E9436008AE70E94360086E30E94BE
:0800B0003600FFCFF894FFCFEA
:00000001FF
