S01200004C454420746F67676C652E737265639B
S11300000C9434000C943E000C943E000C943E007E
S11300100C943E000C943E000C943E000C943E0064
S11300200C943E000C943E000C943E000C943E0054
S11300300C943E000C943E000C943E000C943E0044
S11300400C943E000C943E000C943E000C943E0034
S11300500C943E000C943E000C943E000C943E0024
S11300600C943E000C943E0011241FBECFEFD8E048
S1130070DEBFCDBF0E9440000C9459000C940000D8
S113008084B1876084B9299A289A2FEF81EE94E08D
S1130090215080409040E1F700C0000028982FEFE5
S11300A083ED90E3215080409040E1F700C00000D0
S10900B0EACFF894FFCF33
S9030000FC
