:100000000C942A000C9434000C9434000C943400AA
:100010000C9434000C9434000C9434000C94340090
:100020000C9434000C9434000C9434000C94340080
:100030000C9434000C9434000C9434000C94340070
:100040000C9434000C9434000C9434000C94340060
:100050000C94340011241FBECFE5D8E0DEBFCDBF25
:100060000E9436000C9479000C9400008FE081BB54
:1000700012BAE3E072E066E054E04CE038E029E0D8
:1000800083E090E0E2BBAFE6B7E11197F1F700C083
:10009000000072BBAFE6B7E11197F1F700C00000B6
:1000A00062BBAFE6B7E11197F1F700C0000052BBA9
:1000B000AFE6B7E11197F1F700C0000042BBAFE631
:1000C000B7E11197F1F700C0000032BBAFE6B7E12E
:1000D0001197F1F700C0000022BB019799F6BFEF1E
:1000E000F0E782E0B150F0408040E1F700C000004E
:0600F000C7CFF894FFCF1A
:00000001FF
