S02A00006072656C617920636F6E74726F6C6C20627920746865207075736820627574746F6E2E73726563F8
S11300000C942A000C9434000C9434000C943400A6
S11300100C9434000C9434000C9434000C9434008C
S11300200C9434000C9434000C9434000C9434007C
S11300300C9434000C9434000C9434000C9434006C
S11300400C9434000C9434000C9434000C9434005C
S11300500C94340011241FBECFE5D8E0DEBFCDBF21
S11300600E9436000C943E000C940000A398A29ABF
S11300709B9902C0AA9AFCCFAA98FACFF894FFCF12
S9030000FC
