:100000000C942A000C9434000C9434000C943400AA
:100010000C9434000C9434000C9434000C94340090
:100020000C9434000C9434000C9434000C94340080
:100030000C9434000C9434000C9434000C94340070
:100040000C9434000C9434000C9434000C94340060
:100050000C94340011241FBECFE5D8E0DEBFCDBF25
:100060000E9458000C9482000C9400005F9902C01A
:100070008CB10895089585BB80E282BB2FEF80E7A5
:1000800092E0215080409040E1F700C0000012BA99
:10009000089585BB80EA82BB2FEF80E792E0215074
:1000A00080409040E1F700C0000080E882BB0895E6
:1000B0008FEF84BB80EE81BB15BA12BA1BB888E102
:1000C0008AB986E080BD10BC83E389B988E30E94C9
:1000D0003B0080E80E943B0081E00E943B008EE0F4
:1000E0000E943B0086E00E943B000E943600C82F21
:1000F00080E80E943B0081E00E943B008C2F0E9420
:080100004900F3CFF894FFCF92
:00000001FF
