S01A0000446F74206D617472697820646973706C61792E7372656318
S11300000C942A000C943F000C943F000C943F0085
S11300100C943F000C943F000C943F000C943F0060
S11300200C943F000C943F000C943F000C943F0050
S11300300C943F000C943F000C943F000C943F0040
S11300400C943F000C943F000C943F000C943F0030
S11300500C943F0011241FBECFE5D8E0DEBFCDBF16
S113006010E0A0E6B0E0E4EEF0E002C005900D92EE
S1130070A038B107D9F70E9441000C9470000C9489
S113008000008FEF84BB81BBC0E0D0E028E630E005
S113009002C0C0E0D0E0BE01660F771F660F771F75
S11300A0660F771F68597F4F4CE251E010C0819171
S11300B085BB8D9182BB8FEC97E00197F1F700C06F
S11300C00000E217F30799F74150510921F0E0E6E7
S11300D0F0E0DB01ECCF2196C330D105D4F6DBCFC1
S10700E0F894FFCFBE
S11300E4FEFDFBF7EFDFDF7F183C66C3FFFFC3C3EE
S11300F4FEC3C3FEFEC3C3FE3F7FC0C0C0C07F3F78
S9030000FC
