:100000000C942A000C9436000C9453000C9470004D
:100010000C9434000C9434000C9434000C94340090
:100020000C9434000C9434000C9434000C94340080
:100030000C9434000C9434000C9434000C94340070
:100040000C9434000C9434000C9434000C94340060
:100050000C94340011241FBECFE5D8E0DEBFCDBF25
:100060000E948D000C94AA000C9400001F920F9225
:100070000FB60F9211242F938F939F9395B381E026
:10008000892785BB2FEF81EE94E02150804090407E
:10009000E1F700C000009F918F912F910F900FBE4C
:1000A0000F901F9018951F920F920FB60F92112468
:1000B0002F938F939F9395B382E0892785BB2FEF72
:1000C00080E792E0215080409040E1F700C00000BE
:1000D0009F918F912F910F900FBE0F901F901895A9
:1000E0001F920F920FB60F9211242F938F939F930D
:1000F00095B384E0892785BB2FEF80E792E02150FC
:1001000080409040E1F700C000009F918F912F91B7
:100110000F900FBE0F901F90189517BA87E084BB01
:1001200011BA84E088BB15BA8CE082BB80EE8BBF2D
:1001300085E085BF14BE789494E085B3892785BB9C
:100140002FEF33ED80E3215030408040E1F700C0D5
:080150000000F3CFF894FFCF8B
:00000001FF
