:100000000C9434000C9460000C943E000C943E0060
:100010000C943E000C943E000C943E000C943E0068
:100020000C943E000C943E000C943E000C943E0058
:100030000C943E000C943E000C943E000C943E0048
:100040000C943E000C943E000C943E000C943E0038
:100050000C943E000C943E000C943E000C943E0028
:100060000C943E000C943E0011241FBECFEFD8E04C
:10007000DEBFCDBF0E9440000C9476000C940000BF
:10008000529884B1836084B9E9E6F0E080818860A9
:100090008083E89A7894299A2FEF87EA91E6215095
:1000A00080409040E1F700C0000029982FEF87EAD8
:1000B00091E6215080409040E1F700C00000EBCF76
:1000C0001F920F920FB60F9211248F939F934A9B0A
:1000D00004C095B181E0892785B94A99FECF9F91E7
:1000E0008F910F900FBE0F901F901895F894FFCF2F
:00000001FF
