S01400006770696F2070726F6772616D2E7372656349
S11300000C942A000C9434000C9434000C943400A6
S11300100C9434000C9434000C9434000C9434008C
S11300200C9434000C9434000C9434000C9434007C
S11300300C9434000C9434000C9434000C9434006C
S11300400C9434000C9434000C9434000C9434005C
S11300500C94340011241FBECFE5D8E0DEBFCDBF21
S11300600E9436000C945E000C9400008FEF84BB59
S113007085B315BAA89A25E030E085B3880F85BB0F
S11300804FE788E391E0415080409040E1F700C0A1
S113009000002150310989F725E030E085B38695C9
S11300A085BB4FE788E391E0415080409040E1F701
S11300B000C000002150310989F7DDCFF894FFCF4B
S9030000FC
