:100000000C942A000C9434000C9434000C943400AA
:100010000C9434000C9434000C9434000C94340090
:100020000C9434000C9434000C9434000C94340080
:100030000C9434000C9434000C9434000C94340070
:100040000C9434000C9434000C9434000C94340060
:100050000C94340011241FBECFE5D8E0DEBFCDBF25
:100060000E9436000C9447000C9400008FE081BB86
:1000700080E082BB2FE738E391E021503040904090
:10008000E1F700C000008F5F8A3099F7F1CFF89454
:02009000FFCFA0
:00000001FF
