:100000000C942A000C943F000C943F000C943F0089
:100010000C943F000C943F000C943F000C943F0064
:100020000C943F000C943F000C943F000C943F0054
:100030000C943F000C943F000C943F000C943F0044
:100040000C943F000C943F000C943F000C943F0034
:100050000C943F0011241FBECFE5D8E0DEBFCDBF1A
:1000600010E0A0E6B0E0EEE0F1E002C005900D92F5
:10007000AE36B107D9F70E9477000C9485000C9436
:10008000000085BB80E282BB87EE93E00197F1F729
:1000900000C0000012BA089585BB80EA82BB87EEDB
:1000A00093E00197F1F700C0000080E882BB08955B
:1000B000CF93DF93EC018881882331F021960E9451
:1000C0004C0089918111FBCFDF91CF91089588E396
:1000D0000E94410080E80E94410081E00E944100AE
:1000E0008EE00E94410086E00E94410008958FEF5B
:1000F00084BB80EE81BB15BA0E94670080E690E069
:0E0100000E94580080E090E00895F894FFCF30
:0E010E005468697320636F756E74657200002B
:00000001FF
